:020000021000EC
:108000000040002009FC010045FC010047FC010084
:108010000000000000000000000000000000000060
:1080200000000000000000000000000049FC01000A
:1080300000000000000000004BFC01004DFC0100AE
:108040004FFC01000DAB0100C50202004FFC010016
:108050004FFC01000000000081FC01004FFC01000A
:108060004FFC01009D0402004D0102004FFC010085
:108070004FFC01004FFC01004FFC01004FFC0100D0
:108080004FFC01004FFC01004FFC01004FFC0100C0
:108090004FFC010021FA0100F5E101004FFC010055
:1080A0004FFC01004FFC0100000000000000000038
:1080B00000000000000000000000000000000000C0
:1080C00010B5064C2378002B07D1054B002B02D0AE
:1080D000044800E000BF0123237010BDC820002029
:1080E00000000000586A0200044B10B5002B03D0BA
:1080F0000349044800E000BF10BDC0460000000076
:10810000CC200020586A0200402292029A1A92461D
:108110007047C046174B002B00D1134B9D46FFF70D
:10812000F3FF00218B460F461348144A121A0DF034
:10813000A3FB0E4B002B00D098470D4B002B00D01B
:1081400098470020002104000D000D48002802D0AF
:108150000C4800E000BF09F0C9FC200029000DF028
:1081600093F909F0ADFCC0460000080000000000D3
:108170000000000000400020B0200020B4280020B3
:10818000000000000000000010B50400034B036075
:1081900040300AF0D4F9200010BDC0462C5A02002D
:1081A00007B5094800F00AF9084901A800F090FF56
:1081B000782201A9064802F0EBF801A80AF0BFF9FD
:1081C00000F08CFD00200EBDE42000205C64020065
:1081D000D421002010B5054C200000F039F8200013
:1081E000034A04490DF0EFFA10BDC046E420002018
:1081F00000200020F9810100CA23144A9B0010B519
:10820000C2501C330400C0180AF099F9D0239B0017
:10821000E0180AF094F920009130FF3001F058FB8B
:1082200020006930FF3001F053FB2000F03001F0F6
:10823000C1FE2000D03002F041FA2000643007F087
:1082400041FC201DFFF7A0FF200010BDB85E02001A
:108250001423F0B5040093B01922009318210430C0
:1082600002F0A4FC23002500260064331800B43576
:1082700013211093B83607F031FC28000BF081FB76
:1082800000221E2130000BF00BF82000D03002F04D
:1082900035FA2300F03307211800454A119301F005
:1082A000B1FE20000027012369301A001121009738
:1082B000FF3001F019FB20009130012302221A2126
:1082C0000097FF3001F010FB2000B930022201219D
:1082D0000323FF3002F0DEFA300001F00BF9E42353
:1082E0005B00E050300001F059FBE6235B00E050FA
:1082F0000100E42220005200D130119BA2580095C9
:10830000FF3001F04DFC2000E13029000822FF3051
:1083100002F0E8FD782320000F93013B0E93033B0E
:108320000D93013B0C93013B0B93013B0A93013BE3
:108330000993013B0893013B0793013B0693013BE3
:108340000593013B0493013B0393013B0293013BE3
:108350000193F930013B652200936421013BFF301A
:108360000AF0BFFFCA239B002900E01803F07AFD42
:10837000D3239B00E018092102F064FBDD239B005E
:10838000E7501098032127700CF054FF23002200BF
:10839000200008499C33A0321C6082C2064A022198
:1083A0005A618030012207F01DFD200013B0F0BD9E
:1083B000345A0200452102002F2102000278F0B554
:1083C0000123170004008FB01F401A4200D085E03F
:1083D0000300D0331800039300F0D2FA00F0E4F960
:1083E00030200DF0FBF9050010300AF037F92800B5
:1083F000243009F0CBFF6F4B18202B600DF0EEF905
:1084000006006D4B0822390004600C300C930D9768
:108410000DF032FA0CA90822301D0DF011FA674B4D
:108420002900736112230398AE60EF60AB802F6266
:10843000EF6202F0D7F8002805D028000AF033F8E0
:1084400028000DF0C7F9012327002278B437134321
:1084500023705B4938000BF09AFA002659490590C1
:1084600038000BF094FA35000690642000F018FCF8
:10847000049623006933FF33180007930AF00BFBBF
:1084800000282DD1059B002B34D1069B002B31D128
:10849000DD254D494D48AD0000F0C6FC6359002B69
:1084A0001CD100F0A1F801000BA800F011FE0CA8EF
:1084B00009F0BCFECA239B00E018069B0CAA0BA97E
:1084C0000093039B03F028FD0CA80AF038F80BA8D2
:1084D0000AF035F8CC239B00E35863510FB0F0BD90
:1084E00020009130FF300AF0D6FA0028CAD0049B51
:1084F000182BC7DC20006530FF2329B232B2FF30D1
:1085000000F062FE322000F0CBFB049B013501330A
:10851000EDB20493052D02D100250136F6B2049B7D
:10852000192B0AD0059B002BA3D03800244902F058
:108530006BFC05980DF04EF902E0059B002BF4D181
:10854000069B002B02D018000DF044F91E491F486D
:1085500000F06AFCCA239B00E3180893DD239B000C
:10856000E3580993002B1ED100F03EF801000BA840
:1085700000F0AEFD0CA809F059FE01230CAA0BA9CE
:1085800008980093039B03F0C7FC0CA809F0D7FFE1
:108590000BA809F0D4FFCC239B00E3580993DD23FB
:1085A000099A9B00E2502100079A0898F03103F0E5
:1085B000A3FE5EE7FD030000B72102007721020061
:1085C000686402007364020000200020001C002088
:1085D000BFF34F8F024B034ADA60BFF34F8FFEE7C2
:1085E00000ED00E00400FA05F0B58BB003AF1922EE
:1085F000380015490DF024F90023144D05266B7140
:1086000080235B055B6E2C000093012301933100F6
:10861000009808F0DDF80800019908F053F80522E9
:10862000009B56431B1A0093019B534301932B1B42
:108630005343FB181B5C013C6371054B9C42E6D124
:1086400002480BB0F0BDC046B9640200EE2700201E
:10865000E9270020F0B595B01822002104000EA8EB
:108660000DF00AF913210EA80CF0F4FE03210EA858
:108670000CF093FF464B1B68002B00D10133DBB29B
:10868000009300210123434A09A807F01BFDFA23A8
:108690009B009C429B411C4072B63F4B64211E686C
:1086A0003E4B20000593052508F096F868435030AE
:1086B00030180A210690200008F08EF80A2108F0F0
:1086C00071F9694350317118200007910A2108F0AF
:1086D00069F9694350317118802600240891B60168
:1086E000009B002B52D004AD0027032C02D1802622
:1086F0000024B6016B682A4A02936300D318002253
:10870000019258780299095C039119788C461021DE
:10871000604601410398014204D001209040019934
:108720000143019101320633092AEAD1019B2A68EB
:10873000D9431C4B09011940029B934224D1312F8C
:1087400022DC002109A80CF0E1FFFA23139A0F990B
:10875000DB001068014219D0013B002BF9D1FA234C
:10876000013401377600E4B25B009F42BDD104358D
:1087700008ABAB42B8D1064B1B68002BB0D0009BB6
:10878000013BDBB20093ABE73143DBE7FFF720FFB0
:1087900060240020F0FF0000042000200865020093
:1087A000D2640200F01F0000F8B50023124C2360D1
:1087B00009F05DFD002808D00421200009F053FDD8
:1087C000002801D00D4B2360F8BD0123A12704210F
:1087D0000B4A0C4D13602368FF0068606E68002E22
:1087E000FCD0D6591B02013933430029F5D123604F
:1087F00001235360E8E7C0465C240020ED5EBC0B1B
:1088000000D00040FCD000400B4B70B51C68002C21
:1088100010D0656D00F018FCA36C002901D18342D3
:1088200006D8200009F07AFD2000044909F066FD11
:108830002C00ECE770BDC04668240020882400208E
:10884000F0B595B007932A4B04AC1E6804900591CF
:108850000692002E49D0274B678825881C68002384
:108860000293002C2DD0636D23480393A36C190C45
:108870009AB20B00854214D12048824211D10029BE
:1088800001D0B9420BD1029B002B08D1200009F086
:1088900045FD20001A4909F031FD01230293039C94
:1088A000DFE7002A01D09542F9D1002901D0BB426F
:1088B000F5D1200009F032FD2000114909F01EFD1C
:1088C000EDE7104BEB18012B0FD910233A002900CC
:1088D000009308A80C4B09F0CCFD336830009B686E
:1088E00008A9984708A809F0DEFD15B0F0BDC046FC
:1088F0006424002098240020FE030000FF030000F1
:108900008824002002FCFFFF4188010010B572B6E8
:108910000E4B1C68002C0ED0200009F0FFFC002339
:10892000E3640B4BE36372B60A4B1A681C60A265E2
:1089300062B6200010BD62B65C200CF04FFF5C22D6
:10894000002104000CF098FFE9E7C04690240020C5
:10895000004000208C240020074B10B51C68E36CFD
:10896000DB0706D5FFF7D2FF044B1860002800D0C4
:108970000400200010BDC0469C2400206C24002070
:10898000F7B51E4C0123227816001E401A4233D13F
:108990001B4D2860FFF7BAFF1A4B1B49186009F0FE
:1089A000ADFCFFF7B3FF194B1860194B4363194B2C
:1089B0008363286800280FD0C023174F320017495F
:1089C00000933B0009F074FCC023009332003B008D
:1089D0001349286809F06CFC0C200CF0FFFE002302
:1089E000838083710F4B03600F4B836000F044FB67
:1089F0000123227813432370F7BDC046F4270020DB
:108A0000642400209C24002088240020942400203A
:108A1000FC3F00208123020041880100FF03000089
:108A2000FE030000545A020009880100024B187826
:108A3000012318407047C046F4270020F7B5134FB4
:108A400004003B680E00002B1ED0114B1B78DB0787
:108A50001AD5FFF781FF050033042343836409F02F
:108A60005DFC28000B4909F049FC0B4B0025E3187D
:108A7000012B07D9C023009332002100074B38682F
:108A800009F016FC2800FEBD054DFBE7642400201C
:108A9000F42700209824002002FCFFFF41880100F9
:108AA00016FCFFFFF7B506000D0017000193002824
:108AB00002D100242000FEBD0029FAD0FFF726FFD6
:108AC000041EF6D0074B019A43630660064B4560CF
:108AD0008760002A00D0054B20000549A36309F0F8
:108AE0000DFCE7E7FC3F00205B2302006923020046
:108AF0008824002070B5074B0E0011001A7805007D
:108B00000123100018401A4203D032002800FFF75A
:108B1000C9FF70BDF4270020F8B50500EFF3088405
:108B2000C36B006C1C1B6B6C1B1A9C420FD91F2360
:108B3000074E203437689C43002801D000F0D6F956
:108B4000200000F09FF92864001968643760F8BDC0
:108B50009C240020024B1868434258417047C0468D
:108B6000882400200300002210B5044994006058B6
:108B7000002801D00132F9E7635010BD70240020B5
:108B8000002310B5044A99008C58844201D0013367
:108B9000F9E70020885010BD7024002010B5002493
:108BA000084BA200D058002802D003685B689847A1
:108BB0000134062CF4D1044B1B68002B00D120BFDC
:108BC00010BDC04670240020882400200122F8B582
:108BD0002C4B1B7813421CD02B4D2C68E36C13429A
:108BE00018D002273B43E364284B1E680423F26C31
:108BF00030001343F364636BF363FFF78DFF3000C2
:108C0000716C03F07AFF2868C36C3B4201D003F01B
:108C1000AEFFF8BD1E4F1F4E3A683068002A0AD1D9
:108C200028601B0712D52C60FFF7B8FF3B68002BAC
:108C3000FAD02B600AE0216DB94219D1616D00298B
:108C400000D1110029602A688242EAD029688C424A
:108C5000DFD0336899420DD10F4B4B630F4B8B63C1
:108C60002000FFF759FF296820004B6C626C06E07A
:108C70002A60E8E79C42F3D1002210004B6C03F01D
:108C8000FBFEC6E7F42700209C2400206C24002073
:108C90008824002094240020FC3F0020812302002F
:108CA00070B50C4B04001B78DB0702D40CF06EFC93
:108CB00070BDFFF751FE050000F0C6F92418AC6442
:108CC000280009F02BFB2800034909F017FBFFF7E8
:108CD0007DFFEDE7F427002068240020F8B51B4B4A
:108CE0001B78DB0727D50024194E306809F016FBE6
:108CF000184D2B68002B02D05B6D0134FAE7032C72
:108D00000ADD2F68013C7B6D386C2B6000F0EEF8BB
:108D1000380000F0EBF8F2E72900306809F0EEFACD
:108D200072B60D4932680B68934206D19B6D0B6099
:108D300062B6FFF74BFFF8BD0B00002BF8D0996D22
:108D40008A42F9D1926D9A65F2E7C046F427002075
:108D50009C240020902400208C24002010B5034B7C
:108D60001B78DB0701D5FFF7B9FF10BDF427002002
:108D7000F7B505000C00002833D001261B4B1B78EB
:108D8000334230D01A4F07233868C26C11001940A3
:108D900000911A4207D021002800164AFFF7AAFEC8
:108DA00000252800FEBD03F0CAFE3A680221D36CFC
:108DB0001800084001900B4203D001318B43D3646B
:108DC000EEE73343D3642000A8473A68019DD36C93
:108DD0001900B143D1645B07E3D52000FFF7BEFF64
:108DE000DFE7054DDDE7054DDBE7C046F427002052
:108DF0009C2400205D8D010017FCFFFF16FCFFFF87
:108E0000020010B5014B12CB12C210BDA0240020ED
:108E1000034B1A68034B1A607E225A607047C046A3
:108E200004200020A0240020F0B5124E0300327868
:108E3000022A1BD081421BD90C1A072C18D90D000D
:108E400005430327280038403D4211D172B6BA408D
:108E5000094DA4085351AA185160802212061443E8
:108E60001C6033780133337062B6F0BD0348FCE711
:108E70000348FAE7F6270020A824002013FCFFFF90
:108E800017FCFFFF70B5041E23D0124D124E2B7835
:108E9000002B0CD1114912483370FFF7C5FF114B5D
:108EA000984202D11E20FFF7D5FB01232B7000252D
:108EB0003378AB4209DD0C49EB002000C91809F0FA
:108EC00069FA002805D10135F2E71420FFF7C2FB4B
:108ED000002070BDF5270020F62700200038002074
:108EE000B828002017FCFFFFA824002010B5002898
:108EF00017D000220F4B19780F4B914215DD1C68DB
:108F000084420FD25C6884420CD9041F2368002B72
:108F100002DC1E20FFF79EFB802322681B06134302
:108F2000236010BD01320833E7E71E20FFF792FBF4
:108F3000F7E7C046F6270020A824002070B5051EDC
:108F400014DD0B4E0B4C3368002B02D020680CF064
:108F5000D4F9FA2120680024074B89008361C46298
:108F6000694335600CF0DAF9200070BD0348FCE776
:108F7000B8240020E82400202590010017FCFFFF02
:108F8000F8B5114F05003E68002E0AD130200CF0D4
:108F900025FC040006F00AFE0C4BA6612360E66285
:108FA0003C600B4E3368002B09D110200CF016FCEE
:108FB00004000CF0FFF9200034600CF0D5F9280013
:108FC000FFF7BCFFF8BDC046E82400206062020045
:108FD000E4240020014B18687047C046B8240020E4
:108FE00070B50D4C2368002B03D00C4B1B68002B75
:108FF00002D10620FFF7C4FF20680CF0CCF9020074
:109000000749C3170D684E685219734120680A60FA
:109010004B600CF0C6F970BDE4240020E824002069
:10902000B020002010B5FFF7DBFF0024054BA200A5
:10903000D058002802D003681B68984701340A2CD6
:10904000F4D110BDBC24002010B5FFF7C9FFFA22EF
:10905000034B920018685968002307F0E3FC10BD29
:10906000B020002010B5FFF7BBFF024B186859680D
:1090700010BDC046B02000200B4B10B51B6804008B
:10908000002B03D0094B1B68002B02D10620FFF7F1
:1090900077FF0023064A99008858002801D0013341
:1090A000F9E78C5010BDC046E4240020E8240020DD
:1090B000BC240020002310B5044A99008C58844237
:1090C00001D00133F9E70020885010BDBC240020F6
:1090D00010B50400002902D00B78002B03D1034BFC
:1090E0002360200010BD09F031FAFAE7645A02004B
:1090F000F8B504000E00150000290AD00B78002BEB
:1091000007D0002A05D0080097B20CF0F5FB874283
:1091100003D90B4B23602000F8BD681DFFF7B2FE9A
:10912000206009F0B7FB20682A0047803100043036
:109130000CF086FB23685D1900232B71EBE7C0461A
:10914000645A0200014B03607047C046645A020033
:1091500010B50548054C206009F09FFB2000044A2B
:1091600004490CF030FB10BD645A0200EC240020CE
:10917000002000203F250200084B73B51D68040045
:10918000002D0AD001002E680822083168460CF034
:1091900057FB0CCC28003168884773BDF0240020B1
:1091A000014B03607047C0466C5A020010B50400C2
:1091B000081E03D1034B2360200010BD216009F07D
:1091C0006CFBF9E76C5A020030B500684488A14294
:1091D0000CDA8588AA4209DA002907DB002A05DBB8
:1091E0006243401880188371002030BD0048FCE7BE
:1091F00017FCFFFFF0B507000E001D0085B0002929
:1092000021DD002A1FDD002B1DD004686388039335
:109210008B4200DD0391A3880293934200DD02920A
:10922000002306340193019B029A93420ED0290039
:109230002000039A0CF004FB3B68AD195B88E4182E
:10924000019B0133EEE7024805B0F0BD0020FBE7CB
:1092500017FCFFFFF8B504000D0016001F000029E1
:1092600001DB002A02DA0D4B2360F8BD10004843F1
:109270000630FFF707FE206009F00CFB23685D80D5
:109280009E80002F06D03B00320029002000FFF70F
:10929000B1FFEAE7200009F032FAE6E76C5A020073
:1092A000F7B507000D1E03D1244B03603800FEBD47
:1092B000002408002600210001940378002B1AD016
:1092C0003022524294469C446246092A11D90A2B04
:1092D0000AD1019B361901330193B14200DA310002
:1092E000002426000130E8E7002CFBD000240136E2
:1092F000F8E70124F6E7019A380012B209B2FFF745
:10930000A9FF012149420E000A203B689A1D2C78D2
:10931000002CCBD02300303B092B08D8CB43DB17E4
:109320000B4043431B19303B19000135EFE700297F
:10933000FBDB117031000132F7E7C0466C5A0200C6
:10934000F0B5040087B004A80E001D000192FFF7DD
:1093500057FD236801995A88914233DA9B889D42D0
:1093600030DA1F2E2ED9059B00939E422ADC05235E
:1093700000217343049AA03BD3180393039B6E18F8
:109380005B5C02930023019AD718226850880090F2
:10939000B8420EDD9088B0420BDD0098D2197043C0
:1093A000121810201841029F3840471EB841404211
:1093B00090710133052BE6D101310529DED1002062
:1093C00007B0F0BD0048FBE717FCFFFFF7B50368E7
:1093D00006009F1D5B880D005A1A0192002919DDB5
:1093E0000024994203DB09F08AF9002013E0336876
:1093F0009B889C42F9DA79193800019A0CF020FA1E
:10940000019B2900F81809F05DF9336801345B8885
:10941000FF18ECE70048FEBD17FCFFFF10B505483C
:10942000054C206009F039FA2000044A04490CF088
:10943000CAF910BD6C5A0200F4240020002000205C
:10944000B726020010B5054C0121200009F019FAD9
:109450002000034A03490CF0B6F910BDF82400209F
:10946000002000203F280200074A030010B5012019
:10947000934208D0834202D00020DB0703D41E2091
:10948000FFF7E8F8002010BDFFFF0000004870471C
:1094900016FCFFFF10B53220FFF7DCF8004810BDC6
:1094A00016FCFFFF82801422002310B541620F4C8E
:1094B0000100083404600E240281123A8371827222
:1094C0000363838636310A78C360A2430361436134
:1094D0008361C36103620A70021DD3870122428740
:1094E000034AC26302004032137010BD8C5A02005E
:1094F00001000100F0B5564E0500376897B0002F07
:1095000000D090E006AC0B231C228221200001F049
:10951000F9F90B231D2283210AA801F0F3F90B238B
:109520001B2284210EA801F0EDF908200CF056F959
:1095300001223B00110004900AF08CFD3A21280022
:109540000AF0A6FA00281CD0A38812AFBB80A3792A
:10955000A268BB713F4B5C2012930E23E35614921A
:10956000A289BB73BA810CF039F905230193353315
:1095700000933A002900049B040001F0B5FF346019
:1095800051E0322128000AF0B1FA00281BD0A3884C
:1095900012AFBB80A379A268BB712E4B5C201293E3
:1095A0000E23E3561492A289BB73BA810CF016F90C
:1095B000052301932D3300933A002900049B0400F6
:1095C00002F036F9DBE73C2128000AF04AFA0028CD
:1095D00034D0362202AB9B8E12AFBB8002AB9B18FD
:1095E0001B780832BB711B4BA420129302AB9B1853
:1095F000109A1B781492059202AA928F5BB2BA81DC
:10960000BB730CF0EBF8062304000293013B0193BB
:10961000373300933A00049B290001F085FE0E4B7E
:10962000346044341C600C4B094C1868002802D08C
:10963000216809F09EFA206817B0F0BD44200CF0B4
:10964000CDF8052204990400FFF72CFF97E7C046E8
:10965000FC2400207C5A020000250020F0B563495C
:10966000C56885B08D4258DA030036331C78022273
:109670002300134014425BD1026901928A4265DAE9
:1096800002003632127852076AD44269029202000E
:10969000029C40328C4270DA0100363109780907A9
:1096A00075D4002B7ED113789C46002B16D0010078
:1096B000061DF38F363101339BB2F387039109788E
:1096C00001270C003C40394200D188E01D2B05D910
:1096D000039BB94319700023F387137009F029F92C
:1096E000434A0723904277D94249043B8D4273DBBA
:1096F000C8220133920095426EDC0198023B8842F9
:109700006ADB013B904267DC02980433884263DBEA
:109710000023904260DD06335EE0C8220023520041
:109720009542A9DD030036331A7800239207A3D4AB
:10973000012306001F00363632785408A7433C0048
:1097400002279C40BA432243327095E7C822019C0D
:109750005200944299DD020036321278520794D4B6
:10976000012306001C00363632789708BC43A70058
:109770000424A2433A43327087E7C821029C49007F
:109780008C428EDD010036310978090789D4010049
:10979000012636310B78DF08BE430827F600BB43AD
:1097A00033430B701378032B00D97CE70133DBB212
:1097B0001370012B03D10021031DD98773E7042BFC
:1097C00000D070E7020036321178033B0B43137070
:1097D00000230430C3870B33180005B0F0BD092BFC
:1097E00000D87BE76346F487013B76E770FEFFFF16
:1097F000FF700200E0FCFFFFF0B5C369C1681A68A2
:10980000451D0400EB7F89B0114225D0002B57D1B4
:109810000123A2791A4237D0002602226846A18885
:10982000A67108F025FFA31DDD7F012D2CD1FFF7C8
:109830000BFC3300226A801A99410F000600A188B0
:109840009F4203D1FA239B009E423BD30123042273
:1098500004A808F00DFF17E00B2B01D80133EB77BC
:10986000EB7F082B0DD90122A37913420CD11343AE
:10987000A188A37104A8130008F0FAFEFFF7E4FB27
:109880002062EB7F012BC3D90322A3791340012B64
:1098900014D1FFF7D9FB0023226A801A994199421B
:1098A00002D10A4B984209D90223A279A188134315
:1098B000A3710522012304A808F0DAFE09B0F0BD67
:1098C000013BCCE72B000322C2E7C046DB050000CA
:1098D00010B50400034B08330360FFF7EBFB2000D7
:1098E00010BDC046C05A0200F0B5060000250F00AA
:1098F000040085B002930AAB1B78083603930F4B24
:109900002900083303600192858085711822300098
:109910000BF0B2FF39003000039A0BF0A0FD019B61
:10992000029AA380A31DE771DA77631D25622000E8
:10993000DD77FFF7A1FB200005B0F0BDC05A0200A3
:109940000048704716FCFFFF10B53320FEF782FE7B
:10995000004810BD16FCFFFF002310B504008380F3
:1099600083710D482164083020608020C000A06110
:10997000E061206211002000E360236163616362A3
:10998000A362E36223636363A363E363636409F035
:10999000C8F8200010BDC046D85A0200F0B5544E99
:1099A0000500376897B0002F3DD10B231C22822180
:1099B00006A80AAC00F0A6FF0B231D22832120007D
:1099C00000F0A0FF0B231B2284210EA800F09AFFB9
:1099D00008200BF003FF01223B00110004900AF065
:1099E00039FB1D2128000AF06AF8002824D0A3883A
:1099F00012AFBB80A379A268BB713E4B602012936B
:109A00000E23E3561492A289BB73BA810BF0E6FED3
:109A100006230193173300933A002900049B0400A6
:109A200001F036FE3460344B314A1B681068002B5D
:109A300000D0436417B0F0BD3C2128000AF06DF857
:109A400000281BD0A38812AFBB80A379A268BB718A
:109A5000284B602012930E23E3561492A289BB7305
:109A6000BA810BF0BBFE06230193363300933A0014
:109A70002900049B040001F07DFFD3E73C2128006E
:109A800009F0EFFF002829D0362202AB9B8E12AFDF
:109A9000BB8002AB9B181B780832BB71154BA4200E
:109AA000129302AB9B18109A1B781492059202AA8B
:109AB000928F5BB2BA81BB730BF090FE0623040059
:109AC0000293013B0193373300933A00049B290032
:109AD00001F02AFC084B1C604434A3E748200BF03B
:109AE0007DFE062204990400FFF736FF9AE7C04680
:109AF000002500207C5A0200FC240020F0B587B02D
:109B000001930EAB1B88060003930D9B0D00009381
:109B1000019B0C9F0292002B3DD0002F02D1009B95
:109B2000DB0738D530200BF059FE0400103008F068
:109B300095FD2000243008F029FC029B1820258088
:109B400063800BF04BFE0500009B08220593019BF0
:109B5000002103600C3004970BF08EFE082204A94C
:109B6000281D0BF06DFE0D4B02226B610023039943
:109B7000E3602362E36233680A43300021005B68DC
:109B8000A560A2809847002805D0200008F08BFC33
:109B900020000BF01FFE07B0F0BDC046B72B02003F
:109BA00070B58CB08360109B01604260C36004009C
:109BB0001849180009F0EBFE051E14D001001C2204
:109BC000103105A80BF03CFE6A4608AB43CB43C2FC
:109BD0001B68136020680599069A079B08F0B3FF7D
:109BE00028000BF0F7FD0C4B186800280ED00B4A2C
:109BF00005AB059200220692C03202926A4622CB41
:109C000022C2230003220621FFF778FF20000CB0B8
:109C100070BDC046E8660200F0240020219C0100CF
:109C200082B0F0B50400EDB06420739372920BF033
:109C3000ADFC052210A8110008F06AFD954911A895
:109C4000FFF72EFB1925002221AB013D1A605A6057
:109C50009A600C33002DF8D11522290014A8139511
:109C60000BF00AFEA06809F014FBFF210A90A0681F
:109C700000F01EFC884FA06800F0BEFA049508951D
:109C80000995854B9F4203D0844B9F4200DBF7E050
:109C9000A06809F000FBA56881491AA8FFF718FA27
:109CA00078221AA9280000F049FB1AA808F047FCFE
:109CB0000023794F04930326099B606801333340E6
:109CC000099308F0CEFE0500606808F0D1FE00227E
:109CD000744B05929D420FDB013205922A00C83277
:109CE0000ADBAA22042192000591954204DC059624
:109CF000C82D01DC0222059200220692984210DB58
:109D0000012306930300C8330BDBAA2304329B0014
:109D10000692984205DC03230693C82801DC013B28
:109D2000069310A808F0EBFC5F4B00251E0007937C
:109D300013ABEB5C012B05D172783178FE3310A8A0
:109D4000FFF742FA01350236192DF1D16B46182280
:109D50009A5E6B4610A81421595E099BFFF734FAEE
:109D6000002F02DB049B0F2B07D90023A0681A00E9
:109D70007430009310A908F0D8FC13AE079B059A25
:109D80001B78934221D1079B069A5B7893421CD1A2
:109D90003378012B19D00C23089A0CAD53432800BB
:109DA000002221680B9308F0E6FE21AA94460B9B43
:109DB000634407CD07C301233370089B0133DBB233
:109DC0000893049B0133DBB20493079B374A0233A9
:109DD000079301369342D1D164200BF0D7FB089B47
:109DE000643F3FB2182B00D84BE71A0021A91AA8EC
:109DF00009F0D0F86A461DAB23CB23C21B68136061
:109E00001A991B9A1C9B206808F09DFEE568002D9E
:109E10000CD0274912A8FFF75BF91C2328001AAAC7
:109E200012A909F0E9FD12A808F089FBA06809F061
:109E300032FA11A912A8A56808F04AFC00221D4BAD
:109E4000009212A901932800130000F019FA12A839
:109E500008F031FCFA2080000BF098FBA06809F0B4
:109E60001AFA0A99A06800F023FB11A808F023FC55
:109E700010A808F020FC6DB0F0BC08BC02B0184778
:109E8000002F03D0049B0F2B00D014E7A06800F034
:109E9000B3F910E7F36602008C3C0000D18AFFFFA3
:109EA0003867020058FDFFFF4D6702007F67020020
:109EB000E8660200DC050000F0B5040085B0637AB6
:109EC0009C46002B04D1200009F082F805B0F0BDBB
:109ED000A37A266F01931023019AF35600259B184D
:109EE00001229A402900F36803920293029BAB423D
:109EF00031DDB068019B6843C01873694000E77AA0
:109F00001A181B5C5078E279012F14D1571E3F1AA2
:109F100018003B004243606F52008218D2189379B8
:109F2000634500DD6346627B1A4202D00123AB40E9
:109F300019430135DAE7022F07D0032FEAD1277A38
:109F4000013FFF1A03003800E4E7571EFB1A277A87
:109F5000013F381ADEE71123C943F356606C99407C
:109F600023691940039B19430BF0D0FBA27B072AFE
:109F7000ACD8637B0C495B006373531CDBB290006D
:109F80004158A373022A03D808000BF0F4FA96E7AD
:109F9000064B2000236300236363054BE4622364C4
:109FA00014300BF0BBF991E7045B0200B99E01008D
:109FB000BB2F020070B50400104B2500083303606E
:109FC000FFF778F82000743008F075FB200060304F
:109FD00008F071FB2000583008F0B1FA2000503032
:109FE00008F0ADFA064B1435280063610BF085F9D3
:109FF000280005F0F1FD200070BDC046245B020082
:10A0000060620200F8B500250400324B85800833F9
:10A0100003608571143016000F0005F0C7FD2000A5
:10A020002D4BE562636125645030FFF78BF820000B
:10A030005830FFF787F820006030FFF7B1F82000B4
:10A040000423F25E33682667590009B2743008F0C1
:10A050005FFB3368226FE37173680126237210235C
:10A060006581A7802561D35691685918994204DD0E
:10A070003000984001330543F8E711230120D356FF
:10A08000D1685918994206DD02009A4026690133C9
:10A0900032432261F6E714200BF0A0FB2269002175
:10A0A0002A430123060006F00DF8FF232200637205
:10A0B0000133A381002348326664A3732000137028
:10A0C000A366FEF7D9FF0123A27920001343A371F1
:10A0D000F8BDC046245B020074620200F0B5437A0A
:10A0E000040085B0002B04D1200008F071FF05B0FA
:10A0F000F0BD837A066F01931023019AF356002571
:10A100009B18012294469A402900F3680392029317
:10A11000029BAB422DDDB068019B6843C018736998
:10A120004000E77A1A181B5C5078E279012F10D1B1
:10A13000571E3F1A18003B004243606F52008218BE
:10A14000D2189379002B02D06346AB4019430135F6
:10A15000DEE7022F07D0032FEED1277A013FFF1A47
:10A1600003003800E8E7571EFB1A277A013F381A28
:10A17000E2E71123C943F356606C99402369194003
:10A18000039B19430BF0C2FA667AB31EDBB2FC2BB9
:10A1900014D8FEF71FFF0C4B0500236300230B4868
:10A1A00063630B4BFF217043E462236406F014FBEE
:10A1B00029004143200014300BF0B0F8637A012BE2
:10A1C00000D994E790E7C046D12F0200B603000003
:10A1D000BB2F02001FB5012381881A00684608F0D2
:10A1E00047FA012368461A00024908F041FA05B00F
:10A1F00000BDC046FE0300001FB5030048331A78B7
:10A200000400002A0DD000221A70012381881A0050
:10A21000684608F02DFA012368461A00034908F041
:10A2200027FA2000743008F06AFA1FBDFF0300000F
:10A2300010B50400230048331A78002A07D01B7891
:10A24000012B04D00121024808F07EF8F2E710BD8E
:10A25000FF03000010B501210400072008F074F886
:10A26000064B984208D148342378002B04D0237839
:10A27000012B01D020BFF7E710BDC04616FCFFFF41
:10A2800073B5079C0500002C1CDB060048363078AF
:10A29000002802D03078012816D106981BB2C0B22F
:10A2A0000090280012B2743008F03FFA002C07D05A
:10A2B0002B004A331C80002407234C352C8033703C
:10A2C000200076BD014CFBE7014CF9E717FCFFFFCE
:10A2D00012FCFFFFF0B587B00D9C05000E001700C3
:10A2E0000393002C21DBFFF7A3FF2B0048331B78DF
:10A2F000DAB20292002B1AD1310005A808F0E8F971
:10A300000C9B3A0000932800039B019405A9FFF7DA
:10A31000B7FF05A808F0CFF9002C03D02800FFF7FD
:10A3200099FF029C200007B0F0BD024CFAE7024CF6
:10A33000F8E7C04617FCFFFF11FCFFFFF8B504006B
:10A34000171E1DDD060048363378002B02D0337807
:10A35000012B17D12200E3795632013B1370230001
:10A360000025200054331D80503008F045F92300AB
:10A370004A331F80022328004C3425803370F8BDF7
:10A380000148FCE70148FAE717FCFFFF12FCFFFF5A
:10A39000F7B504000F00161E18DDFFF749FF230074
:10A3A00048331B78DDB2002B12D1390001A808F028
:10A3B0001BF9320001A92000FFF7C0FF01A808F037
:10A3C000BEF82000FFF746FF2800FEBD0148FCE76D
:10A3D0000148FAE717FCFFFF11FCFFFFF8B5040086
:10A3E000171E2DDD060048363278002A02D032785A
:10A3F000012A27D15D42069BFF331FD16B1D22002E
:10A400001BB2643213802300200066331D7060305D
:10A4100008F066F9230000226C331A70954200D0D0
:10A420003D0023004A331D80079B00205A1E9341A4
:10A43000013F4C34053327803370F8BD069BDEE7BF
:10A440000148FAE70148F8E717FCFFFF12FCFFFF9D
:10A45000F0B504000F0016001D0087B0002A1FDDB4
:10A46000FFF7E6FE230048331B78DAB20392002B95
:10A4700018D1390005A808F02BF90D9B3200019383
:10A480000C9B05A9009320002B00FFF7A7FF05A850
:10A4900008F011F92000FFF7DDFE039807B0F0BDCA
:10A4A0000148FBE70148F9E717FCFFFF11FCFFFF3C
:10A4B000FF2902D84172002070470148FCE7C046DE
:10A4C00017FCFFFF13B5040004A8007800902000DB
:10A4D0000AF088FE002801D1207516BD0048FCE76F
:10A4E0000EFCFFFF13B5040004A8007800902000C4
:10A4F0000AF060FE002801D1207516BD0048FCE777
:10A500000EFCFFFF7FB50D0011000F226A4404000E
:10A510001E1E117015D0089B002B12DD012329008F
:10A520000093FFF7DFFF002808D1009032002900D8
:10A530002000089BFFF7C6FF002800D0024804B0A7
:10A5400070BD0248FBE7C0460EFCFFFF17FCFFFF93
:10A55000F7B506000D1E3ED00023022704690193C3
:10A56000002C34D0AA88A38853403B422DD13A42D4
:10A5700022D1A368AA68934227D12B88002B02D04E
:10A5800022889A4221D16B88002B02D062889A429D
:10A590001BD1EB68E268934201D0002B15D17368A0
:10A5A000002B01D020009847A2880C4B1343A380B6
:10A5B000019B0133019308E0A968A06809F02FFD11
:10A5C0000028DAD1AB883B42D3D0E46AC8E7019BCC
:10A5D0002000002B00DC0248FEBDC0460080FFFFCB
:10A5E00017FCFFFFF0B506000D0085B000295DD017
:10A5F00001270469002C27D00221AA8800230A42DF
:10A6000002D0A3885B083B40226829688A4215D1A2
:10A61000A068A968002B0FD009F001FD00280DD01B
:10A62000EB68E268934209D10421625EA388002AA4
:10A6300006DB1F4805B0F0BD8842F1D0E46AD9E7D7
:10A640005B045B0CA380F4E730692A880100031ED9
:10A6500007D1356101236846164908F009F8002042
:10A66000E8E71C88944206D2DC6A1900002C0DD061
:10A670002300F6E723001C88944207D15F886C888A
:10A68000A74203D8DC6A1900002CF3D1884209D113
:10A690000B88934204D805D148886B88984201D929
:10A6A000E962D6E7CB6AEB62CD62D3E70248C1E745
:10A6B00016FCFFFFFD03000017FCFFFF064B10B563
:10A6C0001A00040008322C33026083600830FEF761
:10A6D00057FA200010BDC0463C5B020008B4024B94
:10A6E0009C46083808BC6047BDA6010008B4024B70
:10A6F0009C46083808BC6047093402000C4A002315
:10A7000011002C32083110B543608381837382605D
:10A710000361436183618383016004000830FEF7B5
:10A7200021FA044B1A68002A00D11C60200010BDD9
:10A730003C5B0200F024002082B0F7B501254026E2
:10A7400009930CAB1B78046908920193002C38D054
:10A7500008AA238812889A4201D0002B29D108AA7E
:10A76000638852889A4201D0002B22D1FEF75EF90D
:10A770000123002806D0C022A3881340C03B5A42C0
:10A780005341DBB2019A934219D10422A35EA788F8
:10A79000002B14DB102208A9A0180BF051F8374247
:10A7A00009D1FEF743F9002805D021000748FEF73C
:10A7B000DFFAE46ACAE7200008F02FFEF9E7002577
:10A7C000F7E72800FEBC08BC02B018471B340200A3
:10A7D00008B4024B9C46083808BC6047B7350200F5
:10A7E00010B5024807F03AFF10BDC046B82000205F
:10A7F000F0B587B001930EAB1B88060003930D9B49
:10A800000D000093019B0C9F0292002B3DD0002F66
:10A8100002D1009BDB0738D530200AF0DFFF0400AF
:10A82000103007F01BFF2000243007F0AFFD029B23
:10A830001820258063800AF0D1FF0500009B0822C4
:10A840000593019B002103600C3004970BF014F872
:10A85000082204A9281D0AF0F3FF0D4B02226B61A8
:10A8600000230399E3602362E36233680A43300004
:10A8700021005B68A560A2809847002805D02000D1
:10A8800007F011FE20000AF0A5FF07B0F0BDC0469A
:10A8900005360200F0B5160000258380164A174BD6
:10A8A00004008571026001814681057318688C4639
:10A8B00089B0A8421DD0124A05950492C022029286
:10A8C0006A4604AB82CB82C223002A006146FFF7AE
:10A8D0008FFFC022094B0A49186802926A46069106
:10A8E00006AB079582CB82C223002A003100FFF716
:10A8F0007FFF200009B0F0BD805B0200F024002043
:10A900002F37020030B5002403730123034D8471F7
:10A910000560818082734373846030BD7C5A02007D
:10A9200070B583790400DB0704D58068002801D066
:10A930000AF050FFA3799B0704D5A068002801D036
:10A940000AF048FFA3795B0709D5A0230021154A27
:10A95000A068DB00D150884201D00AF03BFFA37908
:10A960001B0708D5A568002D05D0280009F0C8FBF5
:10A9700028000AF02FFFA379DB0605D5A068002880
:10A9800002D00368DB6898476023A2791A4205D099
:10A99000A068002802D003685B6898470023A36082
:10A9A000A37170BD00700040F7B50126037B040061
:10A9B00033422CD0827961231100194001911A424F
:10A9C00016D1FFF7ADFF18200AF008FF0E2305008F
:10A9D000E356677B1822019900930AF04DFF3A0075
:10A9E000280000990AF03BFDA379A5603343A371C9
:10A9F0006023A279A0681A4202D00AF014FCFEBDBE
:10AA0000436940681B681840431E9841F7E70148B6
:10AA1000F5E7C04616FCFFFF012210B583794173AC
:10AA2000134204D080680AF0B8FD002010BD6022F7
:10AA3000134203D080680AF0FDFBF6E70048F5E713
:10AA400016FCFFFF70B5040000250C4B0E00083308
:10AA50008580857103602100183008F019FF2000FF
:10AA60002100203008F037FF054B2000A680E5804C
:10AA70002572E560256165611C6070BD905B020018
:10AA8000042500208379DB0702D5C16000207047D0
:10AA90000048FCE716FCFFFF8379DB0701D5C0689F
:10AAA00070470148FCE7C04616FCFFFF70B54569DA
:10AAB0000400002D22D0037A032B21D8FFF7ECFFEE
:10AAC000A8622C200AF08AFE2C22002105000AF040
:10AAD000D3FE002263695A622369934207D16369F6
:10AAE00023610020237A65610133237270BD1A004F
:10AAF0005B6A002BFBD163695362F2E70148F5E71B
:10AB00000148F3E717FCFFFF13FCFFFF144B70B580
:10AB10005A68144C002A03D000225A600132A26005
:10AB20001A69002A17D0002119618023DB000E4D1D
:10AB3000E3582868012B0FD1A923DB00E1584942D3
:10AB4000FFF7A0FF2868FFF7B1FF2B685A69074B92
:10AB5000E2500123A36070BDFFF794FFF9E7C04600
:10AB6000FC100040001000400425002004050000F7
:10AB700003000069002809D00221054AD167426A12
:10AB80001A611A7A013A1A72024B19607047C0466C
:10AB900004E100E000E100E010B5002903DB024B16
:10ABA00019600AF08CFB10BD0825002070B5040068
:10ABB0001D0004AB1E7804F0B5FF20000E4B4030A2
:10ABC0002360FEF7BFFA2300220001354C331D70CD
:10ABD0000023E1215832013616700A3AA3646365F6
:10ABE000138053809381D381013B20006364490229
:10ABF000FFF7D2FF200070BD2C5A0200F7B5802766
:10AC00007F053E697C690822113C744305002100E0
:10AC100068460AF015FE104B009A9A4219D000932C
:10AC200000230193796928001339714308F06AFE03
:10AC3000019A2800009908F07DFE2100280008F004
:10AC400061FE79692200133928007143B30808F0C6
:10AC500063FE0198FEBDC046FECA0000F0B50D00BF
:10AC6000ABB000210D920700302212A81E000AF09E
:10AC700003FE28000AF040FE431C0C93102B00D961
:10AC8000B8E0202E00D9B5E02900380008F07FFE9A
:10AC90000B90002854D129000C9A12A80AF0D0FD7C
:10ACA00032000D9916A80AF0CBFD80235B051A69C6
:10ACB0005D690B92113D6A4338005E690D92FFF7A2
:10ACC0009DFF0D9B30220833002104001EA80F9326
:10ACD0000AF0D2FD31000B9B13395943380008F0BC
:10ACE00011FE00230F9E0C930E930C9BA34246DA99
:10ACF000310030221EA80AF0A3FD12A91EA80AF0F6
:10AD0000F1FD00282BD13D4938002200109111940B
:10AD100008F010FE6A46099615AB23CB23C223CB5D
:10AD200023C223CB23C23800149B1299139A08F034
:10AD30000FFE01230E930C9B303601330C93D4E7A6
:10AD40000B9832000D9910300AF06CFD04000B983E
:10AD50000AF040FD002C9ED120002BB0F0BD6A46C9
:10AD6000099621AB23CB23C223CB23C223CB23C2FF
:10AD700038001E991F9A209B08F0EAFDDBE7E643A6
:10AD80003021F61726404E430F9B9E190E9B002B39
:10AD90001CD10B9B981E05F095FCA0422CD01749A6
:10ADA0000134380022001091119408F0C3FD6A4666
:10ADB000099615AB23CB23C223CB23C223CB23C2BB
:10ADC00038001299139A149B08F0C2FD38000D99AF
:10ADD00008F098FD80235B0559690C230B9A133901
:10ADE00063434A433800110002330D9A08F094FD82
:10ADF0000024B1E7024CAFE7024CADE7FECA000009
:10AE000017FCFFFF13FCFFFF8023F0B55B051A69F9
:10AE100095B002925A6905910299113A51435C69C1
:10AE2000029B133C05005C430391FFF7E7FE061EFF
:10AE30003CD030220021083408A8039F0AF01CFDF2
:10AE40002100280008F05EFD0023083701930493D9
:10AE5000019BB34220DA3900302208A80AF0F0FC46
:10AE6000059908A80AF03EFD00280DD11B49721E65
:10AE700028000691079208F05DFD01230493019BD1
:10AE8000303701330193E3E722000C233900280017
:10AE900008F042FD3034F2E7049B002B08D10F4943
:10AEA000320028000691079608F044FD0C4812E095
:10AEB0002800039908F026FD80235B0559690C23BF
:10AEC000029A13394A43734311002800039A02334C
:10AED00008F022FD002015B0F0BDC046FECA0000FB
:10AEE0000CFCFFFF70B50400A280FA2200230800CA
:10AEF0000C49920008312160A3710B496061E26046
:10AF0000A360638208F043FD051E09D00100200004
:10AF10000222103112300AF093FC28000AF05AFC89
:10AF2000200070BDA85B02007F67020030B50225DB
:10AF30008379040087B02B4204D1FDF713FEA37977
:10AF40001D43A571200008F068FD00281CD06B4649
:10AF5000DD1C280008F058FD2B78002B17D001A825
:10AF600008F050FD0321019AD3170B409B189B104A
:10AF70002382FEF769F8E368A18818180123A0600E
:10AF80001A0002A807F074FB002007B030BD0122B0
:10AF9000064B1A60064A51680029FCD00021516016
:10AFA000044A1268019201225A60DBE700C00040A7
:10AFB000FCC0004008C50040022802D10122014B1C
:10AFC0001A707047F727002070B5064D04002B78E3
:10AFD000002B04D1044801F087FF01232B702000CF
:10AFE00070BDC046F8270020B9AF010070B50C0055
:10AFF00007F03DF9002810D00023134DA40A2B7050
:10B00000200008F01EFD002803D00A200AF0BEFA36
:10B01000F6E72B78002BFCD070BD02210B4B0C4ABD
:10B0200099508021C90058580028FCD0A120C000A8
:10B030001C5058580028FCD0002199508021C9008C
:10B040005A58002AFCD0E7E7F727002000E001402B
:10B0500004050000F8B50D0016001F0007F007F901
:10B06000002811D00023184C23703A00310028002A
:10B0700008F0E5FC002803D00A200AF087FAF4E77C
:10B080002378002BFCD0F8BD012380220F4C1049FF
:10B09000D2006350A358002BFCD08022D2000023A2
:10B0A00094469F4208DD980032582A506246A058C4
:10B0B0000028FBD00133F4E7002363506346E358D4
:10B0C000002BFBD0DFE7C046F727002000E001405F
:10B0D0000405000008B4024B9C46443808BC604795
:10B0E000473A0200FA21F8B50389C9000400594320
:10B0F000324808F0AAFFFA21890005F0E3FA304F40
:10B10000A17A2081380008F0A0FF23002600250046
:10B1100022894C33A072A0361A808C3500232A2253
:10B120003178286808F0C4F8002844D11F235B2236
:10B130003178286808F0BCF800283CD120235C2234
:10B140003178286808F0B4F8002834D101232C2283
:10B150003178286808F0ACF800282CD101232D2282
:10B160003178286808F0A4F8002824D101232E2281
:10B170003178286808F09CF800281CD1A17A3800A2
:10B1800008F05EFF0E22C3B23178286808F090F80C
:10B19000002810D1FA21238989005943074808F073
:10B1A0004FFF012303432A2231782868DBB208F0DD
:10B1B0007FF8002800D00348F8BDC046C85B0200F5
:10B1C000C05B02000EFCFFFF08B4024B9C464438F3
:10B1D00008BC6047E5B00100074B10B51A00040039
:10B1E00008323C3302604364443007F068FC2000BE
:10B1F00007F091FB200010BD285C020008B4024B50
:10B200009C46443808BC6047D9B1010008B4024BE1
:10B210009C46443808BC6047513A0200F0B504250A
:10B22000837904008BB02B4204D1FDF79BFCA379FA
:10B230001D43A57120009030FFF7B6FB0026B042F9
:10B240000FD12300A033197820000C2307AD009301
:10B250008C302B0001220068FFF754F9061E03D042
:10B260002C4E30000BB0F0BD0A2304AA9B182A789C
:10B270005A706A781A700022985EAA785A70EA7832
:10B280001A700022995E03912A795A706A791A70AD
:10B2900000229F5EAA795A70EA791A7000215A5EDC
:10B2A00004922A7A5A706A7A1A7000215A5E0592BC
:10B2B000AA7A5A70EA7A1F251A7000229B5EA27A37
:10B2C00003999C46514349425043CB172B405B188E
:10B2D0005B11A361C3172B40181864235743FA1757
:10B2E0001540ED196A112262059A5B425343A36728
:10B2F00064236146049A40115A434B43E267221D7E
:10B30000E0612000D36707F07FFB2000443007F0A6
:10B31000DDFBA6E70EFCFFFF08B4024B9C46443859
:10B3200008BC60471DB20100F7B51E00040008AB61
:10B330001B881500019309AB1A8800910AAB3100F4
:10B340001F88FEF7AFF820003A0031004430FEF7C6
:10B3500003FB134B20001A003C33636423000832C4
:10B360002260009A8C331A60AB8890308380AB796E
:10B37000AA6883710B4BA98903600E23EB56826088
:10B3800022009C32118083732300019AA033032191
:10B390001A80FFF741FB2000FFF7A4FE2000FEBD4E
:10B3A000285C02007C5A0200F8B5FA260189B60032
:10B3B00004007143254808F048FE310005F082F989
:10B3C000234FA17A2081380008F03FFE2500A072AB
:10B3D000583500232A222978606C07F069FF00287D
:10B3E00032D110232B222978606C07F061FF0028EE
:10B3F0002AD101232D222978606C07F059FF0028FB
:10B4000022D101232E222978606C07F051FF0028F9
:10B410001AD1A17A380008F013FE0E22C3B229789F
:10B42000606C07F045FF00280ED121890748714361
:10B4300008F006FE012303432A222978606CDBB260
:10B4400007F036FF002800D00248F8BD905C0200EB
:10B45000885C02000EFCFFFF10B50400034B0833AC
:10B46000036007F058FA200010BDC046F05C0200EF
:10B470007FB50425837904002B4204D1FDF772FBCC
:10B48000A3791D43A57120004830FFF78DFA0025F0
:10B49000A8420DD1230058331978062302AE009339
:10B4A00001223300606CFFF72DF8051E03D00D4D0F
:10B4B000280004B070BD002104200222A37A305677
:10B4C0007156B25659435A434343DB002362D200BC
:10B4D00023685242C90020009B6AA261E16198473B
:10B4E000E6E7C0460EFCFFFFF8B504000F001900A8
:10B4F00006AB1E8807AB15001A88FDF7D3FF0F4B6C
:10B500006764083323602300AA8848339A80AA79A5
:10B51000A9689A710A4AA889A2640E22AA562165CE
:10B520002100543108809A730023A37123005833FB
:10B530001E802000FFF738FF2000F8BDF05C0200FD
:10B540007C5A020010B50400034B0833036007F077
:10B55000B6FA200010BDC046845D0200F0B50700B9
:10B560005C370023040010223978806C87B007F024
:10B570009FFE214D03002800002B3BD10F2602AB7C
:10B58000F6180123397808220093A06C3300FEF7E7
:10B59000B9FFA8422DD003223378134203D0642090
:10B5A000FDF77EFBEAE7FA262189144DB6007143C8
:10B5B000280008F04AFD310005F084F82081A0231E
:10B5C00011223978A06C07F073FE002811D1A36C0A
:10B5D00021890393714328003F7808F031FD01234E
:10B5E0001843C3B210223900039807F061FE002807
:10B5F00000D0014807B0F0BD0EFCFFFF245D020043
:10B6000070B508258379040086B02B4204D1FDF77C
:10B61000A9FAA3791D43A57120004C30FFF7C4F9A6
:10B62000051E0DD023005C331978062304AE009369
:10B6300001223300A06CFEF765FF051E03D0134DF9
:10B64000280006B070BD0E2332786B445A707278B1
:10B6500020001A700022995E64224A43A263B278E5
:10B660005A70F2781A700022995E64225242514355
:10B670006163317959707179197000215B5E5A43A9
:10B680002368E2631B6A9847DAE7C0460EFCFFFFB7
:10B69000F8B504000F00190006AB1E8807AB1500B3
:10B6A0001A88FEF759F90D4BA7640833236023006D
:10B6B000AA884C339A80AA79A9689A71084AA889FD
:10B6C000E2640E22AA5661652100583108801E826C
:10B6D00020009A73FFF742FF2000F8BD845D02004E
:10B6E0007C5A0200F0B5FA250189234FAD0085B0E0
:10B6F00004006943380008F0A8FC290004F0E2FFC8
:10B700001E4EA17A2081300008F09FFC636CA0726D
:10B71000029323005833218901931B786943380031
:10B72000039308F08DFC072303432022039902981A
:10B73000DBB207F0BDFD00281AD1019B2222197847
:10B74000606C102307F0B4FD002811D1019BA17A91
:10B7500030001F78656C08F073FC80235B42034364
:10B76000232239002800DBB207F0A2FD002800D018
:10B77000034805B0F0BDC046B85D0200B05D0200F0
:10B780000EFCFFFF10B50400034B0833036007F005
:10B79000C2F8200010BDC046285E0200F0B50425A6
:10B7A0008379040085B02B4204D1FDF7DBF9A3793E
:10B7B0001D43A57120004830FFF7F6F8051E0DD097
:10B7C000230058331978062302AE0093A8223300D1
:10B7D000606CFEF797FE051E03D0144D280005B0DF
:10B7E000F0BD1F200023F25ED31703409B180222F6
:10B7F000B15E5B11CA17024052180421775E338094
:10B80000F9170140A07A52114343C91972804911B6
:10B810004243B18041435B42E361236852422000CE
:10B820009B6AA26121629847D8E7C0460EFCFFFFE1
:10B83000F8B504000F00190006AB1E8807AB150011
:10B840001A88FDF72FFE0F4B67640833236023002F
:10B85000AA8848339A80AA79A9689A710A4AA8895D
:10B86000A2640E22AA5621652100543108809A73E1
:10B870000023A371230058331E802000FFF732FFFE
:10B880002000F8BD285E02007C5A0200F7B5FA25B8
:10B8900004000189134EAD006943300008F0D5FB68
:10B8A000290004F00FFF2700A36C208100935C3770
:10B8B0003B7881B269433000019308F0C1FB6022FC
:10B8C000C3B20199009807F0F3FC002807D10123C7
:10B8D00062223978A06C07F0EBFC002800D0024807
:10B8E000FEBDC0465C5E02000EFCFFFF10B504000A
:10B8F000034B0833036007F0E2F8200010BDC04698
:10B90000845E02007FB50825837904002B4204D1B0
:10B91000FDF728F9A3791D43A57120004C30FFF7EE
:10B9200043F8051E0DD023005C331978062302AEC0
:10B930000093E8223300A06CFEF7E4FD051E03D05F
:10B940000B4D280004B070BD0223F25E96235B42CB
:10B950005A4362630021725E20005343A3630423B1
:10B96000F25E96235343E36323681B6A9847E8E734
:10B970000EFCFFFFF8B504000F00190006AB1E888F
:10B9800007AB15001A88FDF7E7FF0D4BA7640833D6
:10B9900023602300AA884C339A80AA79A9689A71F7
:10B9A000084AA889E2640E22AA566165210058312E
:10B9B00008801E8220009A73FFF768FF2000F8BD00
:10B9C000845E02007C5A020010B50400054B083367
:10B9D00003601C3006F0B3FD2000183006F0AFFD08
:10B9E000200010BDB05E0200FF23F0B52C4E8DB0DC
:10B9F00033700023040069460088009303F044FA82
:10BA0000002802D16B469B783370264D2B68DB688B
:10BA1000002B07D1002320881A00190008F088F8AD
:10BA20000DB0F0BD3378032BF4D81F4901A8FDF702
:10BA30004FFB2B6801A9DD6804A806F0D5FD28009E
:10BA400004A907F0D3FF0027050004A806F077FD3E
:10BA5000BD421ED029002022103104A809F0F0FEBA
:10BA6000280009F0B7FE317804ABC9005918082244
:10BA700002A809F0E5FE01230822208802A908F0A7
:10BA800057F80137002804D10C212088074A08F014
:10BA90004DF801A806F053FD002FBBD0C0E7C0460B
:10BAA000802000201825002087670200FFFF00008B
:10BAB000F0B58379040091B05B071BD5FDF7C4FA9C
:10BAC00000232269801A9941994203D1F533FF334B
:10BAD00098420FD3A068002808D0354B1D8801F08C
:10BAE000FFF80368152229001B6A98470422A379EE
:10BAF0009343A371A3799B0758D52E4E3368DB6817
:10BB0000002B4FD02C4F3B78032B4BD8284B2B4985
:10BB10001B8804A80193FDF7DBFA336804A9DD68EC
:10BB200008A806F061FD08A9280007F05FFF0500DE
:10BB300008A806F004FD082302AAD3800198073B59
:10BB4000063206A907F0F6FF002D08D029002022B2
:10BB5000103108A809F074FE280009F03BFE3D787A
:10BB600002ABDA88ED0008AB5D19280006A909F0E0
:10BB700059FE002813D00822280006A909F060FE0B
:10BB8000336804A9DD6805A806F02EFD20232800EF
:10BB900008AA05A907F030FF05A806F0D0FC04A804
:10BBA00006F0CDFC0222A3799343A37111B0F0BD3E
:10BBB000A027002018250020802000208767020091
:10BBC000F0B50400150085B001930AAB1F880BABDC
:10BBD0001B78461C02930EAB1B78102203930B7844
:10BBE00003704B8A01314382300009F029FE656100
:10BBF00000250122019B27836383039BE583237731
:10BC0000029B2000F377A31CDA770C9B0C2663625F
:10BC100023000D9A283329001A705D7032009D7040
:10BC20002C3009F029FE2000064B3200A3632900C6
:10BC3000E563403009F020FE2000034B2565E364F6
:10BC400005B0F0BD4B3B02003D3B020070B50D005E
:10BC500001F046F804000368002D09D15B6998479C
:10BC6000FA2080006843074904F02CFDE08070BD95
:10BC70009B6898478542F3D2236820009B689847C9
:10BC80000500EDE771020000F0B507001500A1B056
:10BC900002C706006B4918A81C0008F04EF82B1EBE
:10BCA00003D0280009F028FE83B20122049200226A
:10BCB000039202920232019200932A0018A93800DE
:10BCC000FFF77EFF33006049583318A8079308F048
:10BCD00034F8231E03D0200009F00EFE83B20122A7
:10BCE00004920022039202920232019200932200F7
:10BCF00018A90798FFF764FF33005449AC3318A81C
:10BD0000089308F01AF8269B002B03D0180009F0BE
:10BD1000F3FD83B2012204920022039202920232C6
:10BD200001920093269A18A90898FFF749FF731CFF
:10BD3000FF33474918A8099307F0FFFF279B002B03
:10BD400003D0180009F0D8FD83B20122049200222A
:10BD5000701C03920292023201920093279A18A952
:10BD6000FF30FFF72DFF33005533FF33394918A853
:10BD7000099307F0E2FF289B002B03D0180009F07D
:10BD8000BBFD83B20122049200220392029202328E
:10BD900001920093289A18A90998FFF711FF330020
:10BDA000A933FF332C4918A80A9307F0C6FF299B33
:10BDB000002B03D0180009F09FFD83B201220492EA
:10BDC000002218AC039202920232019200932100E9
:10BDD000299A0A98FFF7F4FE204B1B780B93002B4F
:10BDE0002DD1079B1E491393089B0DA81493731C18
:10BDF000FF331593099B129716930A9B12AD179365
:10BE000007F09BFF1D21492006AB1B7F10222370EA
:10BE100006ABDB8D638206ABC918C01809F010FDB4
:10BE2000062323750B9B1E953068A38300F068FFE3
:10BE3000036821001B6898470122084B1A703000E4
:10BE400021B0F0BD292A0000242A0000252A000084
:10BE5000272A0000262A0000282A0000F9270020AF
:10BE60000A18000070B5002504000B4B85800833CC
:10BE700085710360C1601830FDF764F920001C3043
:10BE8000FDF760F90123621CD377044A2000A56006
:10BE900065611460A37170BDB05E020018250020BA
:10BEA000FA2130B585B004000123022268468900DA
:10BEB00006F0DEFB074D2868002809D007F049FF8F
:10BEC0002188054B2A681980022391790B439371CD
:10BED00005B030BD18250020A027002010B50C00AB
:10BEE00007290FD8806800F0FBFE074B195703683D
:10BEF0005B6C984743425841044B40421840044B06
:10BF0000C01810BD0348FCE706690200EA03000000
:10BF100016FCFFFF17FCFFFFF0B5A04C0D00A54479
:10BF2000040007939AAB1B789D4909A804930692D5
:10BF3000FDF7CEF8200029001C3006F05DFBC02084
:10BF4000800000F0C7FF082009F048FC060000212F
:10BF50000EAF08F0F2F815AD0C220021A6603800F3
:10BF600009F08AFC2B0007CF07C38E4B2900EB603A
:10BF7000002330002B6108F0C9F8A06800F0B0FE83
:10BF800008220021059016A809F076FC142009F07B
:10BF900025FC854B2A0015930300C2CAC2C3834BFC
:10BFA000059EC3600023A03603617368002B00D098
:10BFB000EEE07060A06800F0A3FE082200210600F9
:10BFC00016A809F059FC142009F008FC784B1593C9
:10BFD000030086CD86C3774BC36000230361336BB8
:10BFE000002B00D0D6E03063A06800F079FE082274
:10BFF0000021059016A809F03FFC142009F0EEFB83
:10C000006D4B15AD15932A000300C2CAC2C36B4B1A
:10C01000059EC3600023943603617368002B00D033
:10C02000BAE07060012604AB1B7C04AA334308A964
:10C030003000137407F080FDA06800F071FE036803
:10C040005F495B6A9847A06800F06AFE03685D4933
:10C050009B699847A06800F063FE00230268009384
:10C06000176804993200B847049B002B0AD02000BF
:10C0700007F078FE032805DDA06800F051FE036894
:10C08000DB68984700260EAFB819073607F0A6FD03
:10C090001C2EF8D1183E04ABA0685E770A9700F01A
:10C0A0003FFE03680AA91B699847A06800F018FEC4
:10C0B00003680AA95B6D9847A06800F011FE036849
:10C0C0000021DB6D9847A06800F00AFE036802219A
:10C0D0009B6D984700212000FFF700FF182009F012
:10C0E0007DFBA16800F054FA374B384A1B68A16801
:10C0F0000393374B28001B6800250293354B1B68C0
:10C100000193069B1B689B190093334B12681B68B5
:10C11000FFF7BAFD302009F061FB079AA16800F033
:10C12000F9FAA06800F0DCFD03680CA99B6A984747
:10C13000082304AA1384A068DB185384958400F0B4
:10C14000CFFD03680CA9DB6A98473100A06807F0AF
:10C15000C7FD099A09219378A068921907F0D3FDC9
:10C16000A06800F0BDFD32210571A068FFF76EFDEB
:10C1700004AB1B7FAB4204D0A06800F0B1FD07F018
:10C1800023FD09A806F0DBF995239B009D44F0BD33
:10C1900003610EE7036126E7036142E7ACFDFFFFA1
:10C1A00093670200593B0200A1BE0100673B0200F9
:10C1B000E9B90100753B0200A33B0200833B02008A
:10C1C000DDC1010011C2010014250020102500204E
:10C1D000082000200C2500200C20002013B506228A
:10C1E0006846FCF785FF094B1C68002C0AD069469D
:10C1F00001A806F0F9F9200001A907F0CDFD01A87A
:10C2000006F09DF9684606F09AF913BD182500203E
:10C21000002373B501AE0C0031000500019302F05C
:10C2200033FE002802D1B278064B1A70064B18680C
:10C23000002806D0054B1D8063425C41E1B207F047
:10C24000B3FD73BD8020002018250020A02700200A
:10C2500030B5284CA9B06A220D000DA8210009F0C4
:10C26000EFFA0DA903A8FCF7A1FF03A906A806F0A1
:10C270002FFA01230193013BFF3B00930533FF336A
:10C28000642206A92800FEF7E3F806A806F013FAD0
:10C29000210019226A3106A809F0D2FA05220024E9
:10C2A000110006AB04A806F03AFA04A905A806F0A6
:10C2B0000FFA2300220028000194009405A9FEF73C
:10C2C00009F805A806F0F7F921002800FEF7F0F8B4
:10C2D00005340520FCF7E4FCFF2CF5D1FA208000A2
:10C2E000FCF7DEFC04A806F0E6F903A806F0E3F983
:10C2F00029B030BD83680200F0B59C4B95B0059223
:10C300001A68082304000F00D16C06A80B43D364FD
:10C310009749FCF7DDFE974907A8FCF7D9FE2200F4
:10C3200000250DAE30001C3206A906F074F931006C
:10C3300007AA08A806F06FF9300006F000F9631CA0
:10C34000DD77A06800F0CCFC03685B699847701942
:10C35000073507F043FC1C2DF9D180230BADDB0022
:10C36000AB80A0680B9600F0BBFC036829005B6DF6
:10C370009847A06800F0B4FC036800219B6D9847C3
:10C38000A06800F0ADFC0300002506000A331F2260
:10C3900000211800039309F06FFA039B3000DD774A
:10C3A00007F009FC0621A06807F09AFC089A092109
:10C3B0009378A068043207F0A6FCA06800F090FC17
:10C3C000C8210571A068FFF741FCA06800F088FC57
:10C3D0000581A06800F084FC07F0F6FB3800FDF74B
:10C3E0000BFF2000FCF7BEFB39002000FFF730FFF9
:10C3F0003900200007F0EBFCFF23049503936269EA
:10C40000012316001E401A4232D05B4909A8FCF7EE
:10C4100047FF09A90AA806F05BF900220AA9130040
:10C42000019200923800FDF755FF0AA806F043F983
:10C43000049B002B47D1039B043B0393039B282BB6
:10C4400044DC380006F027FF039B002B00DC049639
:10C45000059806F020FB002806D0012362699A4364
:10C46000130004221343636109A806F024F9002590
:10C4700004226369134234D0FF213800C826FEF736
:10C4800017F80025B600A36902229B5EAB4223DDAC
:10C49000200029B2183006F0D4F80023010038003B
:10C4A0001A007430FCF74CFF3000FCF7F9FB380041
:10C4B00006F0F1FEC820FCF7F3FB02226369134289
:10C4C0000AD10135DFE7039B0433B6E7039BFE2B5C
:10C4D000BEDD00230493BBE7FA208000FCF7E0FBFD
:10C4E00000250222636913421ED01E000632164048
:10C4F000134224D0214909A8FCF7D2FE09A90AA8B1
:10C5000006F0E6F800220AA9130001920092380012
:10C51000FDF7E0FE0AA806F0CEF81948FCF7C0FBCC
:10C5200009A806F0C8F8174D6420FCF7B9FB164BB4
:10C5300001359D4200DC62E705F0ABFE5FE7134981
:10C5400009A8FCF7ADFE09A90AA806F0C1F8330056
:10C5500032000AA9380001960096FDF7BBFE0AA832
:10C5600006F0A9F809A806F0A6F8DDE79C2400204B
:10C57000A1670200B1670200B3670200F86702001A
:10C58000983A00008C0A00008B0A0000356802000F
:10C590005A4BF0B508330360816004002520A9B030
:10C5A00002AB10220391C018002109F065F90BAE0F
:10C5B00001233200524833700E33195C013211707E
:10C5C000013BFAD2312202ABD218537811781B0208
:10C5D0000B43252113AD22006B8202ABC918452302
:10C5E0000C32029202A832781B1818002A7010220E
:10C5F00009F026F9029B642118930A2300260127DB
:10C6000002AA521813705B1802AA9B1831000C2260
:10C610001E702F77EE832E851EA819971C9609F0A1
:10C620002BF9384B0C22310023A82193229609F0D4
:10C6300023F9354B02AA269346239B180322112087
:10C64000DA7702AB0D32C0183100267327960595B4
:10C6500009F012F902AB1F740F232C4806AA195CCB
:10C6600001321170013BFAD21D2202ABD21853786D
:10C6700011781B020B432520112102AA0BAD127C5D
:10C680006B8202ABC9182A70C018102209F0D8F8C2
:10C69000012300272B7505AB11930398AF8300F09E
:10C6A0002FFB036829001B68984713ABDB8BA0683E
:10C6B000A38200F025FB03680097A18A029ADD6837
:10C6C0000123A847A06800F01BFB0600142009F016
:10C6D00085F8012305000761082210C006A9079309
:10C6E000069709F0ADF80A4BEB60B369BB4203D182
:10C6F0002000B56129B0F0BD2B61F9E7C85E0200EA
:10C700000E6902004B3B02003D3B02001E69020025
:10C710002F3E0200F0B500240500774BD9B0083356
:10C7200003608160C260754922008480847143A8DF
:10C7300007F03BFC2B001433012604270693122339
:10C74000069A049601930097230043A90394029448
:10C7500019A8FFF735FA2200694943A807F025FC1C
:10C760000C232A000496103201930097230043A95A
:10C77000039402942EA8FFF723FA2200614911A81E
:10C7800007F013FC2A001C320792082223000496AB
:10C7900001920097079A11A90394029443A8FFF706
:10C7A0000FFA2200584911A807F0FFFB542009F0A6
:10C7B00015F806001220012304212A00019011A877
:10C7C0001832049300912300010003943000029476
:10C7D0001700FFF7F5F930004C4B0822119311AB0D
:10C7E0001900AE62F5623030129409F029F8484B16
:10C7F0000122B363330029331A70380007990332DA
:10C800002C61EC6109F01CF839000422069809F04B
:10C8100017F85E22032302A95218D377B2225218C6
:10C82000D3770A000732FF32D377B21CD37719AB24
:10C8300008932EAB220037490993AC8543AB0CA873
:10C840000A930B9607F0B1FB28223C2002AB9B1801
:10C850001B7802AA1218137002AB5B8F123002AA67
:10C8600012181380292302A95B181900113802AB92
:10C870001022C01808F0E4FF5022042102AB9B18DC
:10C880005822197002AB9B1808AF1797A8681C8034
:10C8900000F036FA036811A91B6898477A2202ABA8
:10C8A0009B181B8854322B8402AB9B181B88543274
:10C8B000AB8402AB9B181B88A8686B8400F020FA3D
:10C8C0000700142008F08AFF0600134B04610822B9
:10C8D00020C00CA90C930D9408F0B2FF0F4BF3602D
:10C8E000BB69A34206D12800BE61FCF73BF92800D2
:10C8F00059B0F0BD3361F6E7D45E02004E69020024
:10C900002E6902003E6902005E6902007D3F02005E
:10C91000AD3E02006E690200E9C90100D73E020087
:10C92000F0B5040085B01F000CAB1B8810300193DC
:10C930000E00150005F092FE2000243005F026FDC3
:10C9400026806580182008F049FF0826050032007F
:10C950000AA902A808F074FF2800320000212F6005
:10C960000C3008F089FF320002A9281D08F068FF8A
:10C97000064B022220006B6100230199A5600A4347
:10C98000E360A2802362E36205B0F0BD013F0200D4
:10C9900070B5040092B0806800F092F9826D0223B5
:10C9A000110019401A421AD1A38D002B17D00D4A3D
:10C9B000E5680492102202926A46A185059104ABB3
:10C9C00041CB41C20A00230006A8FFF7A9FF2B684C
:10C9D00028009B6806A9984706A805F064FD12B0D8
:10C9E00070BDC046413F0200F0B58DB005904B8848
:10C9F000828C0E89CC689A420AD1032E38DD628877
:10CA00002188012308A805F033FE043E0434F4E72E
:10CA1000059A528C9A422BD1032E29DD059B30209A
:10CA2000DF682388069363880793124B08930023DB
:10CA3000099308F0D3FEC02302936B46050008AAB1
:10CA400003CA03C32800059B0699079AFFF768FFEE
:10CA50003B68290038005B689847002805D028000B
:10CA600005F021FD280008F0B5FE043E0434D3E7AC
:10CA70000DB0F0BD413F0200002815D000604160BC
:10CA80008260C360046145618661C7614446046297
:10CA90004C464462544684625C46C4626446046305
:10CAA0006E46466374468463002A06D0C46B043C19
:10CAB000043A25681560B442F9D18C6BA6464E6BDA
:10CAC000B546002B06D0CC6B043C043B1D682560AA
:10CAD000B442F9D10C6BA446CC6AA3468C6AA24638
:10CAE0004C6AA1460C6AA046CF698E694D690C69F3
:10CAF000CB688A6808684968704700604160826056
:10CB0000C360046145618661C761444604624C4666
:10CB10004462544684625C46C462644604636E4662
:10CB2000466374468463C46B043C043925680D6015
:10CB3000B442F9D1C76986694569046970470060E4
:10CB400041608260C360046145618661C76144469B
:10CB500004624C464462544684625C46C462644645
:10CB600004636C4644637446846304697047846B51
:10CB7000A646446BA546046BA446C46AA346846AD1
:10CB8000A246446AA146046AA046C7698669456907
:10CB90000469C368826800684168704710B5041E64
:10CBA0000CD008F0A9FE431EE318A34208D922784E
:10CBB0001978013B21705A700134F6E7014810BD25
:10CBC0000020FCE717FCFFFFF0B585B00D1E0090BC
:10CBD00029D000260A27C217141A4B1E544003936B
:10CBE0002000029639000136019603F0DBFECB17D8
:10CBF000C9185940039B303120009955390003F082
:10CC0000EBFD041EECD1009B002B04DA2D23029EC9
:10CC1000019A0236AB5400232800AB55FFF7BEFF44
:10CC2000200005B0F0BD014CFAE7C04617FCFFFF3D
:10CC30000268084B406810B5C018C0001018030007
:10CC40009A4205D81C688C4202D31800083BF7E7CB
:10CC500010BDC046FFFFFF1F70B5064D04002B68D6
:10CC6000002B02D107F098FE286023689B00EB5848
:10CC7000636070BD2C25002070B500280ED10D4DCD
:10CC80002E68002E08D1083008F0A8FD04000660C8
:10CC90004660FFF7E1FF2C60286870BD064A01235B
:10CCA000116806480C001C401942F6D1036044602C
:10CCB0001360F2E7202500201C25002024250020F9
:10CCC000436810B50400002B02D1044808F093FB20
:10CCD000606803681B69984710BDC0467E69020002
:10CCE000436810B50400002B02D1044808F083FB10
:10CCF000606803681B69984710BDC0467E690200E2
:10CD0000436810B50400002B02D1044808F073FBFF
:10CD1000606803689B69984710BDC0467E69020041
:10CD2000436810B50400002B02D1044808F063FBEF
:10CD3000606803685B6A984710BDC0467E69020060
:10CD400010B5040002F05AFC034B1B68002B01D005
:10CD50002000984710BDC04634250020F0B58BB0A8
:10CD6000050001F0CBFE002000F078FD036807000D
:10CD70001B6998473B6804009B69380098473B68EB
:10CD800006005B6A380098470200288810380B2894
:10CD900061D803F083FC063D6060605A60606066A5
:10CDA0006078AF882000390008F0E0F822006B7B43
:10CDB000583201931378A8799C46022361460B43AD
:10CDC000137004AB1F80012304AA93701300D0706A
:10CDD000019AE91D9A722B000622163305A80993C1
:10CDE00008F02EFD29000B2004AB06220E31C018DE
:10CDF00008F026FD94346368A360A06800282AD058
:10CE0000C36804A99847A368002BF4D01B69F3E713
:10CE100020002F49AF8808F0A9F8220002205832DC
:10CE20001378A9798343137004AB1F809970A034E1
:10CE30006368A360A06800280DD0C36804A9984760
:10CE4000A368002BF4D01B69F3E75369002B02D0D1
:10CE5000A888A91D98472900300007F0C3FA0BB035
:10CE6000F0BD636E002BF6D0AF79A366A06E0028EC
:10CE7000F1D0C36839009847A36E002B01D1636ECF
:10CE8000F3E71B69F1E701220D27AB7BE91D1A408F
:10CE900001925A07920F0292DB08062204A8EF576C
:10CEA000039308F0CDFC019A04ABDA716A46127A5A
:10CEB0009F711A726A46127B20005A722B008C34C2
:10CEC0000F3307938030236804A99847C3E7C0460F
:10CED000FFFF000003000720D72B02D90020014AE2
:10CEE0001360704730250020014B18607047C04622
:10CEF000342500207FB58022A323D205DB00D35840
:10CF00000820DB0700D4053048221C4B1C4901F0E7
:10CF10002DF900280AD080B2002807D1BFF34F8F27
:10CF2000184B194ADA60BFF34F8FFEE701230493D1
:10CF3000164B04A81B680193059307F00DF9002810
:10CF400002D0072007B000BD02A807F003F90028AF
:10CF5000F7D102A907F0FCF80028F2D10C4801F043
:10CF600035F980B20028EDD10A4801F039F980B2D4
:10CF70000028E7D100F0BAFEE4E7C0465D410200B8
:10CF80003825002000ED00E00400FA0530250020DF
:10CF90005DCD010041CD010080B2002807D1BFF373
:10CFA0004F8F034B034ADA60BFF34F8FFEE77047A2
:10CFB00000ED00E00400FA0513B504680093A468CE
:10CFC00013000A000149A04716BDC046FFFF00003C
:10CFD00037B506AC257804680195009324691300E1
:10CFE0000A000149A0473EBDFFFF0000F0B587B031
:10CFF00016000DAA0D00147800216A46518069467A
:10D000000CAA128801930A80002C1AD101004279DF
:10D01000F831A2420BD9E700CF5BB7421BD13021D8
:10D020002034A40022580132D27F0A4215D16A4628
:10D030003100280007F09AF80623002808D00323BF
:10D0400006E06A463100280007F090F8031EF6D18A
:10D05000180007B0F0BD0134DBE710210A4051424F
:10D060004A41002005930CAB0493194B02AC0132EA
:10D070002680A270A0809D4207D100F0EFFB0368DC
:10D080001B69984707F075FF05002100280007F08D
:10D0900071F8002382B29A42DAD010000D4A0533AB
:10D0A0009042D5D00FD801330828D1D0013B1128A8
:10D0B000CED06A463100280007F058F80523002832
:10D0C000C6D0023BC4E7044A06239042C0D0F0E732
:10D0D000FFFF00000330000001340000F0B5040041
:10D0E00097B008002E250B9100F032FC04ABED1830
:10D0F00010902A00012010A907F036F8002802D06D
:10D10000032017B0F0BD2B880B9A0A9093830B9BDA
:10D110000A9A1B7D934200D8C9E063791D2B01D97F
:10D120000720EEE70B9B9B690C930A9B0C9A9B00D4
:10D130009D586B69002B07D16B8B002B04D16B1CA6
:10D14000DB7F022B00D1ADE0280000F001FC0026BF
:10D1500010900D960C962B0028331B78B3421FD9E4
:10D160006A6AB3009F5834220021352004AB9B1813
:10D17000197004AB243AC01808F07EFB46214E4BD0
:10D1800004AA52183800138011A907F079F8002872
:10D1900003D07B690C937B8B0D930136F6B2DAE7F3
:10D1A0006179AB1C1F31C90061186A1CDB7FD27F1B
:10D1B000089129002A310978002007912900293196
:10D1C000097806910D9905910C990491297F039195
:10D1D000298B0291698B01916969009110A907F06F
:10D1E0006FFC002800D08BE7637907001A0020321B
:10D1F00092001F331551DB001B5BEB836379013316
:10D2000063712B0028331B78BB424BD98E218900D8
:10D21000635C132B00D983E76A6ABB009E583422F3
:10D220000021352004AB9B18197004AB243AC018B8
:10D2300008F022FB4620204B04AA1218138011ABE1
:10D240001900300007F01CF80C90002827D130009E
:10D2500000F07EFB8E218900625C10901E32FF324E
:10D260005200A218738B0292327F0C980192328B7B
:10D2700010A90092726907F0C6FC002800D03FE7B1
:10D280008E218900625C531CDBB263541D337A32F9
:10D29000FF3392005B001651E3185B88F38301377C
:10D2A000FFB2AEE70A980130C3B20A932FE72379A1
:10D2B00000200133237124E70129000070B50C22FE
:10D2C0000D000021040008F0D7FA00232361024B6F
:10D2D00020002560E36070BDAD41020070B505001F
:10D2E00006F0EAFF041E1DD12800782221008030BC
:10D2F00008F0C2FA2800E93050222100FF3008F07F
:10D30000BBFA280008222100F83008F0B5FA064BD5
:10D310002822E818210008F0AFFA8E239B00EC5475
:10D32000200070BD0624FBE73A0200000048704769
:10D33000FFFF0000F0B597B00593036807AC1B68CA
:10D3400004910393110023000600A1C9A1C3002585
:10D35000D36829000C220CA80A930B9508F08CFACC
:10D3600035200B4B11AF0F9304AB29001022C018CE
:10D3700010953D7008F080FA059B7D822200009395
:10D3800030000499039C01970CABA04717B0F0BD87
:10D39000FB460200FC3070B5046C0500002C0DD17A
:10D3A000242008F01BFA064B44608361054B84601F
:10D3B000C46004614461C46103602864286C70BD6A
:10D3C000F05F0200D8600200FC3070B5C56B04004D
:10D3D000002D11D1342008F001FA084B856043601C
:10D3E000074B45610361074B0562C361064BC5628C
:10D3F0008362064BE0630360E06B70BD2060020057
:10D40000106002008060020090600200A0600200D4
:10D41000064B70B5040003604068002804D005691D
:10D4200008F0D8F92800F8E7200070BD545F02002A
:10D43000064B70B5040003604068002804D00569FD
:10D4400008F0C8F92800F8E7200070BD245F02004A
:10D45000064B70B5040003604068002804D00569DD
:10D4600008F0B8F92800F8E7200070BD345F02002A
:10D47000064B70B5040003604068002804D00569BD
:10D4800008F0A8F92800F8E7200070BD445F02000A
:10D49000064B70B5040003604068002804D005699D
:10D4A00008F098F92800F8E7200070BDF05F02004E
:10D4B000064B70B5040003604068002804D005697D
:10D4C00008F088F92800F8E7200070BD40600200ED
:10D4D000064B70B5040003604068002804D005695D
:10D4E00008F078F92800F8E7200070BD006002001D
:10D4F000064B70B5040003604068002804D005693D
:10D5000008F068F92800F8E7200070BD30600200DC
:10D51000064B70B5040003604068002804D005691C
:10D5200008F058F92800F8E7200070BD906002006C
:10D53000064B70B5040003604068002804D00569FC
:10D5400008F048F92800F8E7200070BD806002006C
:10D550007FB503791548002B22D0154E154C337832
:10D560002000002B1CD102AD280007F0AAF80028EB
:10D5700010D16B88592B0DD12B78AA88D91F01297E
:10D5800010D800920C4A2021200004F0EFFA012369
:10D59000337004E020222000084908F0B4F920008C
:10D5A00004B070BD0092064AEDE7C046A1690200D2
:10D5B0001A280020FA270020C3690200BB69020074
:10D5C000E0690200FC3070B5046C0500002C0DD140
:10D5D000242008F003F9064B44608361054B846006
:10D5E000C46004614461C46103602864286C70BD38
:10D5F000F05F0200D8600200134B70B5083303607F
:10D60000124B0400C3608023114A451CFF355B00A8
:10D61000C250280007F071FE280002F0DDFA200059
:10D620000C4BB830E360FFF7F3FE2000AC30FFF79F
:10D630001FFF2000A030FFF70BFF20006C30FFF72A
:10D64000F7FE200070BDC046046102004C6102007C
:10D6500060620200645F0200F8B505000400AC35AA
:10D660006B68AB60A868002807D0C36821009847A2
:10D67000AB68002BF4D01B69F3E76868002804D07E
:10D68000066908F0A7F83000F8E7220003215832B5
:10D69000137868608B43137023005C33187020008C
:10D6A0000A3007F070F92000343007F06CF9606E32
:10D6B000002804D0056908F08DF82800F8E7250057
:10D6C000943560666868002804D0066908F082F81E
:10D6D0003000F8E72600A03668607568002D05D098
:10D6E0002F69280008F076F83D00F7E720002900B0
:10D6F00075600C226C3008F0BFF82000074BE5671E
:10D700002900A3670C22803008F0B6F82300044AF1
:10D710008C33903428001A602560F8BDED46020075
:10D72000DF460200434BF0B508330360424B06006E
:10D7300000251F27C360A0230400163685B03A00D9
:10D74000290005718560057443828582300008F0E8
:10D7500093F8802380212000C9019B0033840A00B4
:10D760002B00F5773830009500F0CAFB21004031DE
:10D7700003913A002900039808F07EF823008022E4
:10D78000039960339200CD771A802200032164321E
:10D79000137820008B431370230068331D70274BD0
:10D7A0002900E3660C222567783008F065F823002D
:10D7B000270088331D60224B0837FB678437290018
:10D7C0000C22380008F058F81E4B1F4AFB6023005B
:10D7D000A0333D611A601D4A5D60DA601C4A1D611C
:10D7E0009A61DD61300007F0CEF8039807F0CBF8BE
:10D7F000184B601CE3602300C4331D809D70FF3014
:10D8000002F0D4F98C235B00E55023001933FF3379
:10D810005D618023104A5B00E2502300012220005A
:10D82000FE3352425A86023B9D63DD631D6405B0A0
:10D83000F0BDC04604610200645F0200245F020084
:10D84000ED460200DF460200345F0200445F020042
:10D85000545F02004C6102007462020070B5074D13
:10D860002B68002B07D1A020400007F0B7FF040071
:10D87000FFF758FF2C60286870BDC0468025002047
:10D8800070B500250400204B290003601F4B8580E4
:10D8900083601F4BC56043611E4B856103621E4B55
:10D8A0004562C3621D4B05638363C5634430FFF764
:10D8B00005FD200029005830FFF700FD2000290059
:10D8C0006C30FFF7FBFC2000154B29002360782209
:10D8D000803007F0D1FF20002900F022F83007F057
:10D8E000CBFF2000E93029005022FF3007F0C4FFB1
:10D8F0008E239B00E5540B4B29002822E01807F0EB
:10D90000BBFF200070BDC0465060020000600200F6
:10D9100010600200206002003060020040600200DF
:10D92000F45E02003A02000010B50400024B0360EE
:10D9300007F057F8200010BD1060020010B5040079
:10D94000024B036007F062F8200010BD2060020067
:10D95000F0B5438A85B00193037805000127002BB9
:10D9600037D0224BC6191B6800249C463100204A40
:10D97000A44511D00023981E012804D9D05C0700CB
:10D98000C85C87422ED10133102BF4D111235C43A4
:10D99000174B1F193F7C1CE0300007F07BF82B78F9
:10D9A00007000090002B01D112352E00042C10D05E
:10D9B000112565430E4B10225D193100280007F038
:10D9C0003FFF0023AB70EB70009B01342B74074BBF
:10D9D0001C6003AB9F705888019B00040343180030
:10D9E00005B0F0BD01341132C2E7C04684250020E5
:10D9F0001B280020024B0B60092313607047C046B0
:10DA0000056A020010B504000020FFF727FF036835
:10DA10001B6998470300F3331C708623074A5B0099
:10DA2000C0500433C25003000021054A1133FF33B4
:10DA300059601A61F43007F071FC10BD2B4E0200E2
:10DA40003D4E0200012110B5054A080001F0F8FF23
:10DA500003005A1E93410B205B42184010BDC04684
:10DA600005DA0100F0B593B0029000200C00FFF73A
:10DA7000F5FE03685B6A984700F062F9030006A8A8
:10DA8000002B0DD00023037105AB0693082303730D
:10DA90000AAB836000F01EFA002803D013B0F0BD7B
:10DAA000037103730023237323710193029B019A73
:10DAB000BA331B7893423ED9072353431E00029A80
:10DAC000BB36D318BB331B789619022B2CD10025FB
:10DAD00006AF3B7BAB4220D9AB000393089BAA0067
